:020000040800F2
:100000005809002069030008D9260008DB260008EB
:10001000DF260008E3260008E726000800000000AD
:10002000000000000000000000000000EB260008B7
:10003000ED26000800000000EF260008F126000869
:100040008303000883030008830300088303000878
:100050008303000883030008830300088303000868
:100060008303000883030008830300088303000858
:100070008303000883030008830300088303000848
:1000800083030008970F0008830300088303000818
:100090006F2400088303000883030008830300081B
:1000A0008303000883030008830300088303000818
:1000B0008303000869120008830300088303000813
:1000C00083030008830300088303000883030008F8
:1000D0008303000833140008830300088303000827
:1000E00083030008830300088303000800F002F87C
:1000F00000F03AF80AA090E8000C82448344AAF188
:100100000107DA4501D100F02FF8AFF2090EBAE885
:100110000F0013F0010F18BFFB1A43F0010318473B
:10012000BC4F0000DC4F0000103A24BF78C878C1F3
:10013000FAD8520724BF30C830C144BF04680C60ED
:10014000704700000023002400250026103A28BF35
:1001500078C1FBD8520728BF30C148BF0B60704739
:100160001FB51FBD10B510BD04F046FC1146FFF7CA
:10017000F7FF02F027F804F064FC03B4FFF7F2FF86
:1001800003BC04F06BFC00000CB500200190009053
:100190006C48006840F480306A49086000BF6948D4
:1001A000006800F4003000900198401C0190009815
:1001B00018B90198B0F5A06FF1D16248006800F459
:1001C000003010B10120009001E000200090009864
:1001D000012843D15C48006840F010005A4908608B
:1001E0000846006820F0030008600846006840F0F8
:1001F0000200086053484068524948600846406819
:1002000048600846406840F480604860084640689E
:1002100020F47C1048600846406840F4E8104860CC
:100220000846006840F08070086000BF45480068DC
:1002300000F000700028F9D04248406820F0030028
:10024000404948600846406840F00200486000BFEE
:100250003C48406800F00C000828F9D10CBD10B5EE
:10026000FFF792FF10BD10B53648006840F001005E
:1002700034490860084640683449084031494860BC
:1002800008460068324908402E4908600846006860
:1002900020F4802008600846406820F4FE00486092
:1002A0004FF41F008860FFF7DAFF4FF00060294924
:1002B000086010BD10B5002100200022214B5B68B2
:1002C00003F00C0121B1042906D0082928D107E048
:1002D000214B224C236027E01F4B204C236023E05E
:1002E000184B5B6803F47010164B5B6803F48032A4
:1002F000022303EB904022B9194B4343174C236070
:100300000DE0104B5B6803F4003323B1144B4343FF
:10031000124C236003E0104B4343104C236003E076
:100320000D4B0E4C236000BF00BF064B5B68C3F350
:1003300003130C4CE15C094B1B68CB40074C23605A
:1003400010BD000000100240002002400000FFF835
:10035000FFFFF6FE08ED00E000127A00000000202A
:1003600000093D0004000020094880470948004773
:10037000FEE7FEE7FEE7FEE7FEE7FEE7FEE7FEE755
:10038000FEE7FEE704480549054A064B70470000B2
:1003900067020008ED0000085803002058090020FB
:1003A000580500205805002010B50446FE48844238
:1003B00009D10121480602F04EFD00214FF00070E6
:1003C00002F049FD08E00121880602F044FD002109
:1003D0004FF0806002F03FFD10BD30B502460020B6
:1003E0000023146824F002041460146844F001042B
:1003F000146000E05B1C546804F001041CB94FF663
:10040000FF74A342F6D1546804F001040CB9002033
:100410006CE08C79012C04D1146844F080041460E1
:1004200003E0146824F080041460CC79012C04D11A
:10043000146844F04004146003E0146824F040049D
:1004400014600C7A012C04D1146844F02004146068
:1004500003E0146824F0200414604C7A012C04D1C9
:10046000146844F01004146003E0146824F01004CD
:1004700014608C7A012C04D1146844F008041460D0
:1004800003E0146824F008041460CC7A012C04D131
:10049000146844F00404146003E0146824F00404B5
:1004A00014608C78A407CD7844EA05640D7944EA99
:1004B00005444D7944EA05540D886D1E2C43D461E2
:1004C000146824F001041460002300E05B1C5468ED
:1004D00004F001041CB14FF6FF74A342F6D1546836
:1004E00004F001040CB1002000E0012030BD10B583
:1004F0000021837A012202FA03F1AC4A126842F029
:100500000102AA4B1A60A94A1C3212688A43A74BFF
:100510001C331A60027BCAB9A44A0C3212688A439F
:10052000A24B0C331A604288C38842EA03439F4AB5
:100530004032847A42F834300288838842EA0343A6
:100540009A4A4032847A02EBC4025360027B012A49
:1005500019D1964A0C3212680A43944B0C331A6034
:100560004288038842EA0343904A4032847A42F840
:100570003430C288838842EA03438C4A4032847A0A
:1005800002EBC4025360C27A3AB9884A121D12685B
:100590008A43864B1B1D1A6006E0844A121D1268AE
:1005A0000A43824B1B1D1A60028932B97F4A1432FA
:1005B00012688A437D4B14331A600289012A06D1DE
:1005C0007A4A143212680A43784B14331A60427B19
:1005D000012A06D1754A1C3212680A43734B1C3338
:1005E0001A60724A126822F00102704B1A6010BD44
:1005F00000218171C171017241728172C172817079
:10060000C1700321017102214171012101807047F4
:100610006649096841F00101644A116011460968A0
:1006200043F60E729143614A11601146096841EA2E
:10063000002111601146096821F001011160704725
:1006400021B1026842F48032026003E0026822F4C1
:10065000803202607047E1B1026842F080020260BD
:100660004FF4C272125842F480734FF4C2721350A6
:100670004FF4CA72125842F480734FF4CA72135086
:100680004FF4D272125842F480734FF4D272135066
:100690001BE0026822F0800202604FF4C27212581E
:1006A00022F480734FF4C27213504FF4CA7212587E
:1006B00022F480734FF4CA7213504FF4D27212585E
:1006C00022F480734FF4D2721350704710B5024673
:1006D0000020936803F08063B3F1806F00D110E0D5
:1006E000936803F00063B3F1006F01D1012008E0CB
:1006F000936803F08053B3F1805F01D1022000E0E2
:100700000420042879D002F5C07303EB00131B68A2
:1007100003F0010402F5C07303EB00131C600B7AB5
:100720007BB94B7A0C8843EA445302F5C07404EB5E
:1007300000142468234302F5C07404EB0014236002
:1007400010E00B7A4C6843EAC4034C7A234302F569
:10075000C07404EB00142468234302F5C07404EB56
:10076000001423608B7A03F00F038B7202F5C073C1
:1007700003EB00135B6823F00F0402F5C07303EB77
:1007800000135C6002F5C07303EB00135B688C7AA6
:10079000234302F5C07404EB001463608B7B1C06DA
:1007A0004B7B44EA034403E00064004000660040E1
:1007B0000B7B44EA0323CC7A234302F5C07404EB99
:1007C0000014A3608B7C1C064B7C44EA03440B7C26
:1007D00044EA0323CC7B234302F5C07404EB0014EA
:1007E000E36002F5C07303EB00131B6843F00104E0
:1007F00002F5C07303EB00131C6010BD10B5024678
:10080000002321B1012907D002290FD109E0906806
:10081000F94C00EA04030BE09068F84C00EA04038A
:1008200006E09068F64C00EA040301E0002300BFF4
:1008300000BFF44C181BA34216D007DC83B16FF045
:100840008060184470B1022818D111E0B0F5007F23
:1008500010D0ED4C204448B1B0F5003F0ED10BE074
:1008600002230DE000230BE0002309E0002307E052
:10087000012305E0012303E0012301E0002300BF81
:1008800000BFD8B210BD21B1012907D002290FD174
:1008900009E0826842F0800282600AE0826842F4E5
:1008A0000042826005E0826842F40002826000E05B
:1008B00000BF00BF704710B500F5D87303EB0113FC
:1008C0001B6803F004031372137A53B900F5D8734D
:1008D00003EB01131B6840F2FF7404EA53531360E7
:1008E00009E000F5D87303EB01131B686FF0604457
:1008F00004EAD303536000F5D87303EB01131B68BC
:1009000003F00203537200F5D87303EB01135B6825
:1009100003F00F03937200F5D87303EB01135B68C8
:100920001B0AD37400F5D87303EB01139B68D372D1
:1009300000F5D87303EB01139B681C0A147300F5D0
:10094000D87303EB01139B681C0C547300F5D87328
:1009500003EB01139B681B0E937300F5D87303EB35
:100960000113DB68D37300F5D87303EB0113DB6865
:100970001C0A147400F5D87303EB0113DB681C0C1C
:10098000547400F5D87303EB0113DB681B0E9374EA
:1009900021B9C36843F02003C36003E0036943F057
:1009A0002003036110BD21B9C26842F02002C26079
:1009B00003E0026942F02002026170470246002013
:1009C00019B9D36803F0030006E0012903D11369C4
:1009D00003F0030000E00020704710B502460B460C
:1009E00000204FF6FF71BBB9146824F0020444F0F4
:1009F0000104146000E0491E546804F00304012C53
:100A000001D00029F7D1546804F00304012C01D06F
:100A1000002032E0012030E0012B13D1146824F0D3
:100A20000304146000E0491E546804F003040CB190
:100A30000029F8D1546804F003040CB100201CE034
:100A400001201AE0022B17D1146824F0010444F0AD
:100A50000204146000E0491E546804F00304022CF0
:100A600001D00029F7D1546804F00304022C01D00E
:100A7000002002E0012000E0002010BD014600201F
:100A80000A6822F0010242F002020A604A6802F09B
:100A90000302022A00D10120704701464FF6FF727F
:100AA00000200B6823F002030B6000E0521E4B682D
:100AB00003F00203022B01D1002AF7D14B6803F0A7
:100AC0000203022B00D001207047014600208A69F2
:100AD00002F070007047014600208A69100E7047CE
:100AE000014600208A69C2F3074070471AB1436982
:100AF0000B43436102E043698B434361704710B588
:100B00000246002001F4700343B19369C1F313045A
:100B100023400BB101202DE000202BE001F0807379
:100B200043B15368C1F3130423400BB1012021E00A
:100B300000201FE001F0006343B19368C1F3130488
:100B400023400BB1012015E0002013E001F00073F9
:100B500043B1D368C1F3130423400BB1012009E072
:100B6000002007E01369C1F3130423400BB10120F7
:100B700000E0002010BD0022244B994202D1002346
:100B8000836111E0C1F3130201F000730BB1C26085
:100B90000AE001F080630BB1026105E001F000633F
:100BA0000BB1826000E0426070470246002002EA1A
:100BB00001030BB1012000E00020704770B504462E
:100BC0000D46002660692840002872D0B5F5807F68
:100BD00069D01DDC082D42D006DC012D2DD0022D60
:100BE00031D0042D7FD134E0102D3ED0202D42D0C5
:100BF000402D78D145E00000030000040003000808
:100C000000000310000100080001FFF77000F03041
:100C1000B5F5004F61D009DCB5F5007F4AD0B5F5D8
:100C2000806F4DD0B5F5006F5DD150E0B5F5803FD8
:100C30002DD0B5F5003F56D12FE0A0685549FFF7FC
:100C4000B4FF064651E0E0680321FFF7AEFF064619
:100C50004BE0E0680821FFF7A8FF064645E0E068A2
:100C60001021FFF7A2FF06463FE020690321FFF7AE
:100C70009CFF064639E020690821FFF796FF0646EB
:100C800033E020691021FFF790FF06462DE06068F1
:100C90000821FFF78AFF064627E060681021FFF76A
:100CA00084FF064621E0A0690121FFF77EFF06468A
:100CB0001BE01BE0A0690221FFF777FF064614E066
:100CC000A0690421FFF771FF06460EE00BE0A06962
:100CD0007021FFF76AFF064607E060680421FFF70E
:100CE00064FF064601E0002600BF00E00026304613
:100CF00070BDB1F5007F3AD00FDC202928D006DC8A
:100D000001291CD004291DD0082940D11DE040290B
:100D100021D0B1F5807F3AD126E0B1F5004F31D036
:100D200006DCB1F5806F25D0B1F5006F2FD124E03E
:100D3000B1F5803F12D0B1F5003F28D111E0154A3E
:100D4000826025E00822C26022E01022C2601FE01B
:100D5000082202611CE01022026119E008224260B0
:100D600016E01022426013E00422426010E00422E8
:100D700042600DE0042242600AE000228261042207
:100D8000426005E0002282610422426000E000BF70
:100D900000BF7047010101004FF0E021096921F017
:100DA00004014FF0E0221161C21700EB5272C2F34E
:100DB000C702234B1A701946097801EB4102C2EBB6
:100DC000C1114FF6FF7202EAC1011E4A118070473D
:100DD00001461C4A12884A434FF0E0235A61002220
:100DE0009A6101221A6100BF4FF0E022106900F001
:100DF00001021AB100F48032002AF5D000224FF02F
:100E0000E0231A619A61704701460D4A12784A43FD
:100E10004FF0E0235A6100229A6101221A6100BF5B
:100E20004FF0E022106900F001021AB100F48032A4
:100E3000002AF5D000224FF0E0231A619A61704732
:100E4000140000201600002008B511208DF80000C5
:100E500001208DF801008DF802008DF8030068462E
:100E600001F04DFC08BD10B586B0044601214804D0
:100E700001F0D7FF0121042001F0C6FF0420ADF8E6
:100E8000140018208DF8170003208DF8160005A90E
:100E9000A64801F0FDFC0820ADF8140004208DF8F0
:100EA000170005A9A14801F0F3FC01940020ADF85A
:100EB0000800ADF80A00ADF80C00ADF810000C20E9
:100EC000ADF80E0001A99A4802F053FF012198489D
:100ED00002F0DBFF002240F22661954802F0E1FFBC
:100EE00006B010BD00B58BB00121084601F07FFFB0
:100EF000904803F0DDFB8E48001D00908E48019065
:100F0000102002902520039000200490802005905E
:100F100000200690079008904FF440500990002060
:100F20000A906946834803F065FC0122022181484A
:100F300003F097FC00217F4803F087FC0122802109
:100F40007B4802F0D3FF0BB000BD10B5044620462D
:100F5000FFF789FFFFF7C6FFFFF776FF10BD10B55B
:100F600004462146724802F0FDFF00BF8021704810
:100F700003F066F80028F9D010BD70B504460D46A0
:100F8000002605E02078FFF7EAFF701CC6B2641C5B
:100F9000AE42F7DB70BD10B54FF0007003F08FFC70
:100FA00038B14FF0007003F09EFC0021614803F05F
:100FB0004CFC4FF0006003F096FC10BD10B50446E9
:100FC00000215C4803F041FC25215A4803F052FC03
:100FD0000121584803F039FC10BDF8B50025002068
:100FE0000090242054490870472048705020887091
:100FF0005320C87051495048001D00F0B0FC5049C2
:101000004D48083000F0ABFC4E494B480C3000F026
:10101000A6FC4D494848103000F0A1FC4B49464819
:10102000143000F09CFC4A48008800B200906946E9
:101030004148183000F0A0FC46493F481A3000F003
:101040008EFC45493C481E3000F089FC434800783E
:10105000394981F8220042494248006803F00CFFF8
:1010600004D81920344981F823000AE03E493D485C
:10107000006803F035FE064603F0C6FD2E4981F8F0
:101080002300002405E02C48005D2844C5B2601C04
:10109000C4B2242CF7DB284880F824502520FFF721
:1010A0008DFFF8BD70B500252420234908704D2020
:1010B0004870412088704720C8702C491E48001D88
:1010C00000F040FC2A491C48083000F03BFC29494C
:1010D00019480C3000F036FC27491748103000F052
:1010E0004BFC264800781449887425480078C87459
:1010F000244800780875244800784875234800780B
:1011000088750020C87508764876002405E00A48EE
:10111000005D2844C5B2601CC4B2242CF7DB06482D
:1011200080F824502520FFF749FF70BD00080140DA
:1011300000440040800002400C010020D800002044
:10114000D4000020B0000020AC000020B40000203B
:10115000A00000209C000020B8000020C200002059
:1011600000002040D000002000002041E8000020C6
:10117000EC000020F0000020C4000020BC00002093
:10118000BD000020BE000020BF000020C0000020E5
:1011900010B501F0CBFC5048006840F001004E490A
:1011A00008600846406848600846406840F4E0101F
:1011B00048600846406848600846006840F0807013
:1011C000086000BF4448006800F000700028F9D0B3
:1011D0004148406820F003003F49486008464068A5
:1011E00040F00200486000BF3B48406800F00C003F
:1011F0000828F9D110BD08B51D208DF80000002089
:101200008DF8010002208DF8020001208DF8030006
:10121000684601F074FA08BD0EB50121022001F004
:1012200000FEFFF7E8FF684602F052FA44F620603D
:10123000ADF804002320ADF800000020ADF8060052
:10124000ADF802006946254801F016FF0121234848
:1012500002F06EFB01221146204802F084FA0121BF
:101260001E4802F065FA0EBD10B501211B4802F0C0
:1012700028FD012826D11A480068401C184908603A
:1012800018480068401C174908600120164908707A
:101290001348007800F0010010B9012013490870CC
:1012A0000F4800680521B0FBF1F201FB120028B9DC
:1012B00001200F49087000200949086001210748F2
:1012C00002F010FD10BD00BF0649096844F6206217
:1012D00001FB02F0704700000010024000040040D3
:1012E0001C00002020000020180000201900002011
:1012F0001A00002000B58BB00121084601F077FDEF
:101300005E4803F0D5F95E4800905E4801900020E9
:101310000290782003900020049080200590002007
:1013200006900790202008900002099000200A9063
:101330006946524803F05EFA0121504803F085FAED
:10134000012240214E48001F02F0D0FD0BB000BD2D
:1013500008B525208DF8000000208DF801008DF8DB
:10136000020001208DF80300684601F0C8F908BDAD
:1013700010B586B00446012144F2040001F044FD9A
:101380004FF40070ADF8140018208DF817000320FA
:101390008DF8160005A93C4801F07AFA4FF48060F8
:1013A000ADF8140004208DF8170005A9364801F0A7
:1013B0006FFA01940020ADF80800ADF80A00ADF80E
:1013C0000C00ADF810000C20ADF80E0001A92C485F
:1013D000001F02F0CEFC012240F224412848001FE9
:1013E00002F05FFD01212648001F02F04EFDFFF7CD
:1013F000AFFF06B010BD10B5044621462048001FBF
:1014000002F0B0FD00BF80211D48001F02F018FE51
:101410000028F8D010BD70B504460D46002605E042
:101420002078FFF7E8FF701CC6B2641CAE42F7DB01
:1014300070BD10B540F224411148001F02F016FEA5
:10144000A8B10120114908700C4803F015FAC0F149
:1014500078000F4908800021084803F0F6F9782148
:10146000064803F007FA0121044803F0EEF90448A6
:10147000001F00880248008810BD0000580002408C
:10148000043801403101002000080140990000208B
:101490009600002008B50121082001F0B5FC4FF4AA
:1014A0004060ADF8000010208DF8030003208DF897
:1014B00002006946FE4801F0EBF908BD10B5FC4892
:1014C000001D006820F47040F949091D08600846B5
:1014D000006840F4405008600120F6490860F64971
:1014E000C1F8A8010520FFF78FFC0020F149086032
:1014F0000520FFF789FC0020EF49C1F8A80110BDC5
:1015000010B5EB48001D006820F47040E849091D43
:1015100008600846006840F4405008600020E54933
:10152000091F0860E449C1F8AC010520FFF76CFC15
:101530000120E049091F08600520FFF765FC012034
:10154000DD49C1F8AC010520FFF75EFC10BD10B508
:101550000024D748001D006820F47040D449091DBC
:1015600008600846006840F4004008600120D14946
:1015700008600520FFF748FC0120CF49C1F8A80109
:101580000520FFF741FC0AE0601CC4B2322C03DDE9
:10159000FFF7B6FF002010BD0220FFF735FCC5485D
:1015A000803800680028EFD1C249091F0860012077
:1015B000F1E710B50020BF49091F0860BC48001DB5
:1015C000006820F47040BA49091D086008460068A8
:1015D00040F4405008600020B749C1F8AC01052034
:1015E000FFF712FC0120B349091F08600520FFF72F
:1015F0000BFC0020B049C1F8A80110BD10B50020B7
:10160000AC49091F0860AA48001D006820F470401A
:10161000A749091D08600846006840F4405008606A
:101620000120A549C1F8AC010520FFF7EDFB012021
:10163000A049091F08600520FFF7E6FB00209E492E
:10164000C1F8A80110BD70B504469948001D006896
:1016500020F470409649091D08600846006840F46F
:101660004050086000209349091F0860002514E0DD
:10167000E009904908606006040E0520FFF7C4FBEE
:1016800001208D49C1F8A8010520FFF7BDFB00200E
:101690008849091F0860681CC5B2082DE8DB70BDC9
:1016A00070B5054600248248001D006820F4704093
:1016B0007F49091D08600846006840F40040086042
:1016C000002617E000207B49091F08600520FFF76E
:1016D0009BFB01207849C1F8A8016006040E7548FB
:1016E0008038006808B1601CC4B20520FFF78CFB8D
:1016F000701CC6B2082EE5DB15B1FFF75AFF01E0FA
:10170000FFF77CFF204670BD70B505460E460024ED
:10171000FFF7D4FE2846FFF796FF641CFFF717FF7C
:101720003046FFF790FF641CFFF711FFFFF7C6FE7E
:10173000691CC8B2FFF787FF641CFFF708FF002091
:10174000FFF7AEFF0446FFF7DBFE204670BD2DE934
:10175000F0410746884615461E460024FFF7AEFEB8
:101760003846FFF770FFFFF7F2FE4046FFF76BFFCA
:10177000FFF7EDFEFFF7A2FE791CC8B2FFF763FF8B
:10178000FFF7E5FE00BF0DE0681EA04204D0012077
:10179000FFF786FF305503E00020FFF781FF30554B
:1017A000601CC4B2AC42EFDBFFF7AAFE2046BDE8E6
:1017B000F0812DE9F04180460D4616461F46002473
:1017C000FFF77CFE4046FFF73EFFFFF7C0FE2846CE
:1017D000FFF739FFFFF7BBFE00BF06E0385DFFF7FC
:1017E00032FFFFF7B4FE601CC4B2B442F6DBFFF771
:1017F00087FE0120BDE8F08170B505460E4614460F
:1018000031462846FFF780FF2070012070BD37B5B4
:1018100004460D4602AB012229462046FFF7C9FFC8
:101820003EBD2DE9F8430746884614461D46089EEE
:101830006A4641463846FFF7DFFF28B3601CFF21A8
:1018400001FA00F0C4F108012944491EFF220A41AF
:10185000104300F0FF09C5F1080006FA00F0C6B217
:10186000C4F1070006419DF8000000EA090000905D
:101870009DF80000304300909DF800204146384616
:10188000FFF7C5FFBDE8F8830020FBE7F8B5064683
:101890000F4614461D466A4639463046FFF7ACFFF0
:1018A00065B10120A0409DF8001008430CE0000045
:1018B000000C0140AC812142008021420120A04067
:1018C0009DF8001021EA0000C0B200909DF80020B1
:1018D00039463046FFF79BFFF8BD000030B504469F
:1018E0000B46002204E01D782570641C5B1C521C12
:1018F000042AF8DB30BD30B504460B46002204E074
:101900001D782570641C5B1C521C042AF8DB30BD5A
:1019100030B504460B46002204E01D782570641C97
:101920005B1C521C042AF8DB30BD30B504460B4664
:10193000002204E01D782570641C5B1C521C022AE6
:10194000F8DB30BD30B50C460346002204E02578B4
:101950001D70641C5B1C521C042AF8DB30BD30B5C2
:101960000C460346002204E025781D70641C5B1CB5
:10197000521C042AF8DB30BD30B50C460346002269
:1019800004E025781D70641C5B1C521C022AF8DBE5
:1019900030BD70B506460D4614462146304603F06C
:1019A0006BFA01D2264605E02946304603F064F979
:1019B00000D22E46304670BD0146002900DC09B930
:1019C00008467047484200B2FBE702468A4201DA05
:1019D000104670470846FCE702468A4201DD104681
:1019E00070470846FCE770B502460C46FF25FF230A
:1019F00009E012F8010B80EA03013348405C80EAF9
:101A000005033248455C201EA4F10106B4B2F0D1B2
:101A100043EA052070BD30B502460B46002010E0B9
:101A200012F8014B6040002109E000F001041CB1F4
:101A30008C2484EA600000E040104C1CE1B20829CC
:101A4000F3DB1C1EA3F10105ABB2E9D130BD10B52B
:101A500002460B46002103E012F8014B6018C1B2A8
:101A6000181EA3F10104A3B2F6D10846CC1701EB6E
:101A700014642412A1EB04246442E1B2084610BDB0
:101A800070B502460C4600210023002015E080219D
:101A90000FE000F4002525B1400041F22105684027
:101AA00000E04000D55C0D4015B141F221056840D1
:101AB00049100029EDD15D1CEBB2251EA4F10106F1
:101AC000F4B2E4D170BD0000DA4E0008DA4F00082D
:101AD00070B50024002600251C21E848FFF79BFC78
:101AE0003220FFF775F94FF4E130FFF741FC322067
:101AF000FFF76EF9022507E0E148405D2044C4B2DB
:101B00003019C6B2681CC5B20E2DF5DBDC488473F3
:101B1000C6731021FFF77FFC3220FFF759F900242C
:101B20000026022507E0D748405D2044C4B23019A2
:101B3000C6B2681CC5B20C2DF5DBD24804734673DF
:101B40000E21FFF768FC3220FFF742F970BD2DE946
:101B5000FC410024CC480088CC4909880844C828A6
:101B600010DCCB49C84A12888818C8490A88C94974
:101B700002F0C8FEC4480088C44909880844C24924
:101B8000088009E0C1480288C249C14802F0BAFE93
:101B9000BE480088BC490880BB480088322801DC68
:101BA000BDE8FC8100241AE1B948005DB5287CD16C
:101BB000B749601C085C6228F9D1A01C085C0128A8
:101BC000F5D1E01C085C0728F1D1201D085C5C28D9
:101BD000EDD1601D085C0028E9D104F16400AA4938
:101BE0000988884200DD00E100260027A51C06E0E8
:101BF000A748405D3044C6B2B819C7B26D1C04F1A5
:101C000062008542F4D3A249085CB0427ED104F15F
:101C10006300085CB842F9D101209F4908709F49D0
:101C20000870FFF750FB9E490860994AA01D1118E3
:101C30009C48FFF76DFE964A04F10A0011189A4875
:101C4000FFF773FE924904F10C00085C9749087095
:101C50008F4904F10D00085C954908708C4904F126
:101C60000E00085C93490870894904F10F00085C74
:101C700091490870864904F11000085C8F4908708A
:101C8000834904F11A00085C8D490870804904F109
:101C90001D00085C8B4908707D4A04F11E00111874
:101CA0008948FFF735FE7A4A00E096E004F1220009
:101CB00011188648FFF72CFE754A04F12A00111806
:101CC0008348FFF725FE80480068824909688842FA
:101CD00029D17E48006880490968884223D17A4822
:101CE000006800B37D480078132808D17C4840681C
:101CF000401C7B4948600C227A4800F029FA77485A
:101D00000078401C75490870084600E062E00078E1
:101D1000142811DB142008707348007840F0040088
:101D20007149087008E000206C4908706E4800781E
:101D300020F004006C490870634800686549086039
:101D40006248006864490860514A04F12A00111889
:101D50006648FFF7DDFD4E4A04F13600111864486D
:101D6000FFF7D6FD4A4A04F13A0011186148FFF71F
:101D7000CFFD474A04F13E0011185F48FFF7C8FD48
:101D8000434A04F1420011185C48FFF7C1FD404A84
:101D900004F1460011186846FFF7BAFD42F21071CF
:101DA000009890FBF1F056490860394A04F152005E
:101DB000111801A8FFF7B9FDBDF9040002F044FFB6
:101DC0008046504902F05EFE4F49086004F164000D
:101DD00084B204E0A01D84B201E0601C84B22A48F1
:101DE0000088401FA0423FF7DFAE00BF26480088B2
:101DF000021B2748011902F085FD23480088001BBB
:101E00002149088000BFCBE610B52348007830B9DF
:101E10003548007840F001003349087005E0324849
:101E2000007820F0010030490870FFF74CFA1C4997
:101E30000968401A3549884219D91748007801289D
:101E400015D12948007800F00200022808D0244863
:101E50008068401C224988600C22224800F078F9F2
:101E60002148007840F002001F49087005E01E4834
:101E7000007820F002001C49087010BD24000020EA
:101E80004000002050000020940000209600002018
:101E9000A901002031010020980000209B000020B3
:101EA000CC000020C8000020C4000020BC0000209E
:101EB000BD000020BE000020BF000020C0000020A8
:101EC000C1000020C2000020D8000020D400002063
:101ED0009C000020E0000020DC0000209A00002090
:101EE0009602002000F80008E4000020A80000206E
:101EF000AC000020B0000020B4000020B80000209A
:101F0000A00000200000C842D000002080841E00F5
:101F1000F0B503460C460021734D744E96F90060EF
:101F200025F816300C35714E96F9006025F81640EC
:101F30000C356E4E96F9006025F816206B4D95F91C
:101F400000506D1C052695FBF6F706FB17556DB284
:101F5000664E357000BF002005E0634D35F9105026
:101F60002944451CE8B20528F7DB052591FBF5F56A
:101F70002DB25D4E75810021002006E05A4D0C35D2
:101F800035F910502944451CE8B20528F6DB052533
:101F900091FBF5F52EB2544DEE820021002006E0B3
:101FA000514D183535F910502944451CE8B2052823
:101FB000F6DB052591FBF5F52EB24B4D6E84F0BD99
:101FC0002DE9FC4104460D46164600208DF805001B
:101FD0008DF804008DF803008DF802008DF80100E3
:101FE0008DF800006B46062200211820FFF7AFFB9A
:101FF0009DF804309DF8057043EA07231AB29DF856
:1020000002309DF8037043EA072319B29DF80030AF
:102010009DF8017043EA072318B2FFF779FF3248B1
:10202000408920803048C08A28802F48408C3080EA
:10203000BDE8FC811CB5002409E001AA911E684698
:10204000FFF7BEFF3220FEF7DFFE601CC4B2052C96
:10205000F3DB1CBD08B5002000906B4601220B216C
:102060001820FFF7A6FB452000906B4601220A21AD
:102070001820FFF79EFB0A20FEF7AAFE6B460122FE
:102080000A211820FFF795FB0A20FEF7A1FEFFF7B3
:10209000D1FF08BD3EB56A4601A902A8FFF790FF2F
:1020A000BDF9040002F0D0FD80F000441049204644
:1020B00002F0E8FC0F490860BDF9080002F0C4FD19
:1020C00080F000440A49204602F0DCFC0A4908601E
:1020D000BDF9000002F0B8FD0446054902F0D2FC4B
:1020E000064908603EBD000072020020F400002096
:1020F00000004040E8000020EC000020F00000203C
:1021000001460888704730B504460D46104602EB7C
:10211000D0714910A2EB410101B130BD002300BFD5
:1021200007E004EB4300FFF7EBFF25F81300581C12
:1021300083B202EBD271B3EB610FF2DB00BFECE7CD
:102140000146002300220B884A8803EB02407047B7
:102150002DE9F047054688461446B5F1006F03D3D4
:1021600028191749884201D3BDE8F087204604EBBF
:10217000D0714910A4EB410101B1F5E701F0D9FF9D
:10218000A5F100694FEA99274FF0006000EB872A1C
:10219000504602F013F8002600BF07E038F816108A
:1021A00005EB460002F00DF9701C86B204EBD47109
:1021B000B6EB610FF2DB01F0C8FF00BFD4E700000F
:1021C00000000208FEF7E4FF2420FEF7E5FD4FF4CF
:1021D000C06000F08FFAFFF71FF84FF4FA70FEF7B7
:1021E000F7FDFFF757F94FF4FA70FEF7F1FDFFF72F
:1021F00031FF4FF4FA70FEF7EBFD4FF41650FFF786
:10220000B7F8FFF765FCFFF775F86420FEF7E0FD0F
:1022100000F042F80C221B491B48FFF774FF1948D5
:1022200000684AF27A71884209D008461549086068
:102230000020486088600C221348FFF789FF1FE0E8
:102240001248007801280ED1002010490870FFF7CD
:102250007EFC0F480078012812D100200C4908703C
:1022600000F02DF90CE00B480078012808D100207F
:1022700008490870FFF70EFF00F0CDF9FFF7C4FD25
:10228000DEE700009602002000F800089900002018
:102290009B0000201800002000B589B00121092012
:1022A00000F0B2FD0121480600F0BBFDEB48FEF74F
:1022B0007BF84FF48070ADF8200048208DF82300A3
:1022C00008A9E74800F0E4FA4FF40070ADF82000E8
:1022D00018208DF8230003208DF8220008A9E0487B
:1022E00000F0D6FA01214FF4EA1000F0A2FB05A895
:1022F000FEF77EF900208DF81A0001208DF81B00F2
:1023000000208DF81C008DF81D008DF81E008DF842
:102310001F008DF816008DF8170002208DF81800A8
:1023200001208DF819000C20ADF8140005A9CB4848
:10233000FEF753F800208DF80E008DF80F000120F5
:102340008DF81000ADF804004FF48270ADF806006F
:102350003F20ADF8080048F20600ADF80A00002062
:10236000ADF80C0001208DF8110001A8FEF7BFF8B0
:1023700001220221B948FEF7B9FB14208DF80000B4
:1023800000208DF8010001208DF802008DF8030077
:10239000684600F0B4F909B000BD2DE9F04786B0F9
:1023A00081468846144600260027B2460025B8F12B
:1023B000010F11D1AB4D24B945F01000204302901C
:1023C0001EE0052C04D145F008002043029017E0E0
:1023D00045EA0400029013E0B8F1020F10D1A24DBB
:1023E00024B945F010002043029009E0012C04D1EB
:1023F00045F008002043029002E045EA0400029004
:1024000000208DF80D0004208DF80C0008208DF8B8
:102410000E00002706E019F807100DF10F00C15556
:10242000781C87B2082FF6DB01A98C48FEF74EF91D
:10243000824606E0701C86B201A98848FEF746F97C
:102440008246BAF1040F02D1B6F5487FF2DD0026CC
:1024500001E0701C86B251468048FEF7CFF9012892
:1024600002D0B6F5487FF4DD06B0BDE8F08710B5C0
:102470007E4A00217948FEF71EFA00217748FEF7D0
:1024800092FA02217548FEF734FC10BD70B50025A4
:10249000002411E02046E11704EB5171C1F3C70598
:1024A0000830302808DC724908192A460121FFF754
:1024B00074FF04F1080084B2302CEBDB70BD1CB556
:1024C0000020019000906B496948FFF748FA6A497B
:1024D0006748001DFFF743FA684965480830FFF771
:1024E0003EFA674962480C30FFF739FA654960489F
:1024F0001030FFF734FA6448008800B20090694653
:102500005B481430FFF738FA604959481630FFF736
:1025100026FA5F4956481A30FFF721FA5D480078DD
:10252000534988775C495D48006802F0A5FC03D8F0
:1025300019204F49C87709E059495848006802F006
:10254000CFFB044602F060FB4949C877554948482B
:102550002030FFF711FA54480078454981F82200ED
:102560005248007881F823005148007881F824000F
:102570005048007881F825004F48007881F82600FF
:102580004E493B482730FFF7EAF94D480078384973
:1025900081F82B004B484068FF2804D24948007955
:1025A00081F82C0003E0FF20314981F82C004548D8
:1025B0008068FF2805D24348007A2D4981F82D0014
:1025C00003E0FF202A4981F82D002E212848FFF73B
:1025D0000AFA019001A926482E30FFF7CDF9FFF73E
:1025E00055FF1CBD70B50025002411E02046E11701
:1025F00004EB5171C1F3C7050830102808DC3249DB
:1026000008192A460221FFF7C8FE04F1080084B227
:10261000102CEBDB70BD08B5002000902B492A4838
:10262000FFF790F92A492848001DFFF78BF929493F
:1026300025480830FFF786F9032023490873002056
:1026400048730E212048FFF7CEF9009069461E48D6
:102650000E30FFF791F9FFF7C5FF08BD0064004099
:10266000000C01404010080040101000A40200209F
:10267000B8020020D8000020D4000020B0000020C4
:10268000AC000020B4000020A00000209C0000202E
:10269000B8000020C200002000002040D000002030
:1026A00000002041C4000020BC000020BD0000202C
:1026B000BE000020BF000020C0000020C800002095
:1026C000E400002096020020E8020020E80000203C
:1026D000EC000020F0000020704700BFFEE700BFC4
:1026E000FEE700BFFEE700BFFEE770477047704798
:1026F0007047000031490143314A1160704770B59D
:10270000002100230F22C47804B32D4C246804F464
:10271000E064C4F5E064210AC1F10403CA404478CE
:1027200004FA03F18478144021430901254C06780A
:10273000A155047804F01F050124AC4005786D1103
:10274000AD0005F1E025C5F8004109E0047804F08A
:102750001F050124AC401C4D0678761145F8264033
:1027600070BD1A4A0A400243154B1B1F1A6070477E
:1027700039B1134A121D12680243114B1B1D1A6016
:1027800006E00F4A121D126882430D4B1B1D1A6092
:102790007047042808D14FF0E021096941F0040195
:1027A0004FF0E022116107E04FF0E021096921F0CC
:1027B00004014FF0E0221161704700000000FA05AB
:1027C0000CED00E000E400E080E100E080FFFF1F8E
:1027D00010B50446CC48844208D10121042000F001
:1027E0002DFB0021042000F029FB46E0C74884426D
:1027F00008D10121082000F021FB0021082000F071
:102800001DFB3AE0C248844208D10121102000F0AB
:1028100015FB0021102000F011FB2EE0BD48844282
:1028200008D10121202000F009FB0021202000F028
:1028300005FB22E0B848844208D10121402000F085
:10284000FDFA0021402000F0F9FA16E0B348844276
:1028500008D10121802000F0F1FA0021802000F051
:10286000EDFA0AE0AE48844207D10121801500F05C
:10287000E5FA0021A01500F0E1FA10BD10B5012124
:10288000084600F0DBFA0021012000F0D7FA10BD65
:102890002DE9F041024600250026002000230024F7
:1028A000002791F803C00CF00F0591F803C00CF05D
:1028B000100CBCF1000F03D091F802C04CEA0505E2
:1028C00091F800C0BCF1000F31D0146800202BE05B
:1028D0004FF0010C0CFA00F3B1F800C00CEA03064B
:1028E0009E4220D183004FF00F0C0CFA03F7BC433B
:1028F00005FA03FC4CEA040491F803C0BCF1280F6C
:1029000006D14FF0010C0CFA00FCC2F814C00AE02A
:1029100091F803C0BCF1480F05D14FF0010C0CFA3F
:1029200000FCC2F810C0401C0828D1D31460B1F8D4
:1029300000C0BCF1FF0F34DD546800202EE000F130
:10294000080C4FF0010808FA0CF3B1F800C00CEACB
:1029500003069E4221D183004FF00F0C0CFA03F7BF
:10296000BC4305FA03FC4CEA040491F803C0BCF133
:10297000280F05D100F1080C08FA0CF8C2F81480F1
:1029800091F803C0BCF1480F07D100F1080C4FF0DB
:10299000010808FA0CF8C2F81080401C0828CED3B1
:1029A0005460BDE8F0814FF6FF7101800221817013
:1029B0000421C17070470246002093680B400BB1A0
:1029C000012000E0002070470146886880B270470F
:1029D00002460020D3680B400BB1012000E000202C
:1029E00070470146C86880B2704701617047416115
:1029F00070470AB1016100E041617047C1607047F2
:102A00004FF480320A438261816182618269826906
:102A1000704702460020434B18684FF680731840F9
:102A200040EA021008433F4B186070473E49C861B6
:102A30007047F0B50A46002300240021002500F06D
:102A40000046B6F1004F02D1364EF16901E0354E35
:102A50007168C0F3034583B200F44016B6F5401F19
:102A600008D121F070612F4E766826F070662D4FE8
:102A70007E6012E000F48016B6F5801F06D10326B2
:102A800006FA05F4A14341F0706106E0460D3601F7
:102A900003FA06F6B14341F0706122B1460D3601EA
:102AA00003FA06F6314300F00046B6F1004F02D1BA
:102AB0001C4EF16101E01B4E7160F0BD30B500228B
:102AC0008B071C0F0F2303FA04F2164B08338C10EC
:102AD00053F824309343134C08348D1044F82530B8
:102AE00023468C1053F824308C07240F00FA04F48A
:102AF00023430C4C08348D1044F8253030BD0A496E
:102B0000DC3108607047000000080140000C014003
:102B1000001001400014014000180140001C014059
:102B2000002001400000014000002042DF48006812
:102B300040F00100DD49086008464068DC49084073
:102B4000DA49486008460068DA490840D749086011
:102B50000846006820F4802008600846406820F499
:102B6000FE0048604FF41F0088607047CF49096835
:102B700021F48031CD4A11601146096821F4802189
:102B80001160B0F5803F03D0B0F5802F0ED106E084
:102B9000C649096841F48031C44A116007E0C3495D
:102BA000096841F4A021C14A116000E000BF00BFE4
:102BB000704710B501460022002300204A11012A67
:102BC00002D1BA4C236806E0022A02D1B74C236A2C
:102BD00001E0B64C636A01F01F02012494401C40DE
:102BE0000CB1012000E0002010BD38B5002000909D
:102BF0000024002500BF3120FFF7DBFF05460098C9
:102C0000401C00900098B0F5A06F01D0002DF2D0CC
:102C10003120FFF7CEFF08B1012400E00024204658
:102C200038BD01460020A14A106820F0F80040EAB3
:102C3000C10010607047A04908607047024600203C
:102C40009A4B586820F47C1042EA01031843974BD2
:102C50005860704798490866704701460020934ABB
:102C6000506820F003000843506070478F48406868
:102C700000F00C007047014600208C4A506820F09C
:102C8000F00008435060704701460020874A5068B2
:102C900020F4E06008435060704701460020834AFA
:102CA000506820F4605040EAC1005060704729B17C
:102CB0007E4A527A02437D4B5A7204E07B4A527A32
:102CC00082437A4B5A7270477B49D831086070470B
:102CD00001460020754A506820F440400843506087
:102CE00070470021714A20321170704A82F820101A
:102CF000012802D004280AD104E001216B4A2032C5
:102D0000117005E00521694A2032117000E000BF12
:102D100000BF70476949086070476449096A014308
:102D2000624A11627047654944390860704730B59E
:102D300000210022002400235C4D6D6805F00C0189
:102D400021B1042905D0082923D105E05C4D056097
:102D500022E05B4D05601FE0544D6D6805F4701274
:102D6000524D6D6805F48034022505EB92421CB982
:102D7000544D554305600BE04C4D6D6805F400352E
:102D80001DB1504D5543056002E04D4D5543056062
:102D900002E04B4D056000BF00BF444D6D6805F07B
:102DA000F0010909484D6B5C0568DD4045603F4D09
:102DB0006D6805F4E061090A434D6B5C4568DD40D0
:102DC00085603A4D6D6805F46051C90A3E4D6B5CF3
:102DD0004568DD40C560354D6D6805F44041890B9F
:102DE0003A4D6B5CC568B5FBF3F5056130BD29B1A3
:102DF0002E4A526902432D4B5A6104E02B4A526914
:102E000082432A4B5A61704729B1284A926902438A
:102E1000264B9A6104E0254A92698243234B9A61CA
:102E2000704729B1214AD2690243204BDA6104E09C
:102E30001E4AD26982431D4BDA61704729B11B4A91
:102E4000D2680243194BDA6004E0184AD268824320
:102E5000164BDA60704729B1144A12690243134BCA
:102E60001A6104E0114A12698243104B1A617047DB
:102E700012494039086070470F49C86470470B49D0
:102E8000C87170470948406A40F08070074948623D
:102E9000704701460020054A92680A400AB10120A5
:102EA00000E000207047014988727047001002401E
:102EB0000000FFF8FFFFF6FE00004242800442429D
:102EC00000127A0000093D00F500002005010020F5
:102ED00010B50446FE48844208D10121C014FFF712
:102EE000ADFF0021E014FFF7A9FFC4E0B4F1804F6B
:102EF00008D101210846FFF7AEFF00210120FFF7AE
:102F0000AAFFB8E0F348844208D101210220FFF76C
:102F1000A2FF00210220FFF79EFFACE0EE488442B2
:102F200008D101210420FFF796FF00210420FFF7BC
:102F300092FFA0E0E948844208D101210820FFF770
:102F40008AFF00210820FFF786FF94E0E4488442CE
:102F500008D101211020FFF77EFF00211020FFF78C
:102F60007AFF88E0DF48844208D101212020FFF762
:102F700072FF00212020FFF76EFF7CE0DA488442D8
:102F800008D101214014FFF759FF00216014FFF719
:102F900055FF70E0D548844209D10121C804FFF7EC
:102FA0004DFF00214FF40020FFF748FF63E0D048B9
:102FB000844209D101210805FFF740FF00214FF4A9
:102FC0008010FFF73BFF56E0CA48844209D1012137
:102FD0004805FFF733FF00214FF40010FFF72EFFE5
:102FE00049E0C548844208D101214020FFF733FF62
:102FF00000214020FFF72FFF3DE0C048844208D168
:1030000001218020FFF727FF00218020FFF723FF09
:1030100031E0BB48844208D101218015FFF71BFF36
:103020000021A015FFF717FF25E0B648844209D11B
:1030300001210804FFF702FF00214FF48030FFF761
:10304000FDFE18E0B048844209D101214804FFF791
:10305000F5FE00214FF40030FFF7F0FE0BE0AB4827
:10306000844208D101218804FFF7E8FE00214FF4D3
:103070008020FFF7E3FE10BD00220288944B9842A7
:103080000ED0994B98420BD0B0F1804F08D0914BA5
:10309000984205D0904B984202D0904B984204D170
:1030A0004FF68F731A404B881A438D4B984207D0C6
:1030B0008C4B984204D04FF6FF431A40CB881A43FA
:1030C00002808B8883850B880385814B98420BD0C7
:1030D000854B984208D08B4B984205D08A4B98423A
:1030E00002D08A4B984201D10B7A03860123838256
:1030F000704770B5002400220023058C4FF6FE7641
:1031000035400584028C8388048B4FF68F752C40E4
:10311000B51E2C400D882C43751E2A400D892A436C
:103120004D882A436A4DA8420BD06F4DA84208D063
:10313000744DA84205D0744DA84202D0734DA842E8
:1031400013D14FF6F7752A404D892A434FF6FB7588
:103150002A408D882A434FF6FF652B404FF6FF55D6
:103160002B408D892B43CD892B4383800483CD88CD
:103170008586028470BD70B5002400220023058C72
:103180004FF6EF7635400584028C8388048B48F631
:10319000FF752C404FF6FF452C400D884FF6FF760B
:1031A00006EA05252C434FF6DF752A400D8906EA0D
:1031B00005152A434D8806EA05152A43444DA842C1
:1031C00002D0494DA8421DD14FF67F752A404D8946
:1031D0004FF6FF7606EA05152A434FF6BF752A40DB
:1031E0008D8806EA05152A434FF6FF352B404FF22E
:1031F000FF752B408D8906EA85052B43CD8906EAAC
:1032000085052B4383800483CD880587028470BDA8
:1032100070B5002400220023058C4FF6FF66354070
:103220000584028C8388848B4FF68F752C404FF673
:10323000FC752C400D882C434FF6FF552A400D8914
:103240004FF6FF7606EA05252A434D8806EA05254E
:103250002A431F4DA84202D0234DA8421DD14FF250
:10326000FF752A404D894FF6FF7606EA05252A4369
:103270004FF6FF352A408D8806EA05252A434EF68B
:10328000FF752B404DF6FF752B408D8906EA05151D
:103290002B43CD8906EA05152B4383808483CD8893
:1032A0008587028470BD70B5002200230024058C40
:1032B0004EF6FF7635400584038C8488828B48F671
:1032C000FF752A404FF6FF452A400D8820E0000098
:1032D000002C01400004004000080040000C0040A9
:1032E000001000400014004000340140004C014038
:1032F000005001400054014000180040001C0040F4
:1033000000200040004001400044014000480140CE
:103310004FF6FF7606EA05252A434DF6FF752B404A
:103320000D8906EA05352B434D8806EA05352B4302
:10333000FA4DA84202D0FA4DA84208D14BF6FF75CB
:103340002C408D894FF6FF7606EA85152C43848044
:103350008283CD88A0F84050038470BD828B4FF2E9
:10336000FF331A408283828B4FF6FF7303EA0123F7
:103370001A4382837047F0B50C461546002200219F
:103380000026078C4EF6FF7C07EA0C070784828B29
:10339000018C4FF6FF7707EA043640F6FF473A40C4
:1033A0004FF6FF7707EA05273A434FF6FF7707EA1C
:1033B00003373A43D94FB8420ED0D94FB8420BD059
:1033C000B0F1804F08D0D74FB84205D0D64FB842A1
:1033D00002D0D64FB84206D14DF6FF77394046F4B9
:1033E0008057394305E047F6FF57394044F480578A
:1033F000394382830184F0BD828B4FF6F3731A4008
:103400008283828B0A4382837047F0B50C4615464F
:10341000002200210026078C4FF6FF6C07EA0C07FC
:103420000784828B018C4FF6FF7707EA04264FF65C
:103430000C773A404FF6FF7707EA03172F433A43DA
:10344000B64FB8420ED0B64FB8420BD0B0F1804F55
:1034500008D0B44FB84205D0B34FB84202D0B34FF2
:10346000B84206D14FF6FF57394046F480773943CA
:1034700005E04FF2FF57394044F4807739438283A7
:103480000184F0BD028B4FF2FF331A400283028B9E
:103490004FF6FF7303EA01231A4302837047F0B526
:1034A0000C461546002200210026078C4FF6EF7CC3
:1034B00007EA0C070784028B018C4FF6FF7707EAB7
:1034C000041640F6FF473A404FF6FF7707EA033706
:1034D0003A434FF6FF7707EA05273A438F4FB84242
:1034E0000ED08F4FB8420BD0B0F1804F08D08D4F27
:1034F000B84205D08C4FB84202D08C4FB84206D1AA
:103500004FF6DF77394046F01007394305E04FF6B4
:103510005F77394044F01007394302830184F0BDDE
:10352000028B4FF6F3731A400283028B0A43028325
:103530007047F0B50C46154600220021068C4FF668
:10354000FE773E400684028B018C4FF60C763240AB
:103550007E1C06EA03162E433243704EB0420ED054
:103560006F4EB0420BD0B0F1804F08D06D4EB042DC
:1035700005D06D4EB04202D06C4EB04206D14FF62F
:10358000FD76314044F00106314305E04FF6F57613
:10359000314044F00106314302830184F0BD70B52F
:1035A00005460C465D4885420ED05D4885420BD0ED
:1035B000B5F1804F08D05B48854205D05A48854216
:1035C00002D05A48854200D100E000BF208850B99F
:1035D0002389A28861882846FFF7ABFFE188284647
:1035E000FFF79EFF25E0208804280AD12389A288BE
:1035F00061882846FFF753FFE1882846FFF742FF1E
:1036000017E0208808280AD12389A28861882846E3
:10361000FFF7FBFEE1882846FFF7EEFE09E023896D
:10362000A28861882846FFF7A6FEE1882846FFF7B2
:1036300095FE70BD2DE9F04105460C460026012798
:10364000608808B9022600E00026A088012801D180
:10365000022700E001272088A0B92389A288618879
:103660002846FFF766FFE1882846FFF759FF2389C0
:103670003A4631462846FFF712FFE1882846FFF711
:1036800001FF13E02389A28861882846FFF707FF1E
:10369000E1882846FFF7F6FE23893A463146284658
:1036A000FFF747FFE1882846FFF73AFFBDE8F081C2
:1036B0000A884B881A438B881A43CB881A430B8994
:1036C0001A434B891A438B891A43A0F84420704748
:1036D0004FF6FF71818000210180C180418001721D
:1036E00070470021018041808180C180018141813A
:1036F0008181C18170470021018041800121818049
:103700000021C180018170470021018041808180BA
:10371000C18001814181818170470000002C0140FE
:10372000003401400004004000080040000C00404C
:1037300021B1028842F00102028004E002884FF6C3
:10374000FE731A400280704731B1B0F8442042F451
:103750000042A0F8442005E0B0F84420C2F30E0275
:10376000A0F8442070471AB183890B43838102E09B
:1037700083898B43838170478182704741EA0203CA
:10378000A0F8483070471AB183890B43838102E067
:1037900083898B438381704701894FF6F87211400A
:1037A000018170470A46002101894FF68F73194045
:1037B00011430181704730B504460D462946204625
:1037C000FFF7F0FF208940F00700208130BD2DE990
:1037D000F04104460D4616461F46602D06D13B4675
:1037E000012231462046FFF75AFE05E03B46012202
:1037F00031462046FFF79DFE29462046FFF7D2FFBF
:10380000208940F007002081BDE8F08130B50C46EA
:1038100000210189C9B24FF6FF7505EA032515435A
:1038200025432943018130BD2DE9F04105460E466F
:1038300017469846002443463A4631462846FFF745
:10384000E5FF2C894FF6F870044044F007044FF66A
:103850008F70044044F070042C81BDE8F081F0B515
:1038600004460D4616461F463B463246294620462C
:10387000FFF7CCFF208940F480402081F0BD018516
:10388000828270470A46002101884FF68F731940E3
:10389000114301807047F0B50C4615461E460021C5
:1038A000002200230189028B038C4FF6F877394000
:1038B00021434FF6FC473A4040F201173A434FF696
:1038C000DD773B404FF6FF7707EA06172F433B4370
:1038D000018102830384F0BD0A460021018B4FF66B
:1038E0008F7319401143018370470A460021018BF1
:1038F00048F6FF7319404FF6FF7303EA022319439A
:10390000018370470A460021818B4FF68F7319405F
:103910001143818370470A460021818B48F6FF736B
:1039200019404FF6FF7303EA02231943818370475E
:1039300021B1028842F08002028004E002884FF642
:103940007F731A400280704721B1828842F00402DE
:10395000828004E082884FF6FB731A4082807047B1
:1039600021B1828842F00802828004E082884FF60A
:10397000F7731A408280704721B1828842F00102B9
:10398000828004E082884FF6FE731A40828070477E
:103990000A460021018B4FF6F7731940114301834A
:1039A00070470A460021018B4FF2FF7319404FF612
:1039B000FF7303EA02231943018370470A4600217B
:1039C000818B4FF6F77319401143818370470A4684
:1039D0000021818B4FF2FF7319404FF6FF7303EA0A
:1039E00002231943818370470A460021018B4FF659
:1039F000FB7319401143018370470A460021018B74
:103A00004FF6FF3319404FF6FF7303EA02231943C1
:103A1000018370470A460021818B4FF6FB731940E2
:103A20001143818370470A460021818B4FF6FF3393
:103A300019404FF6FF7303EA02231943818370474D
:103A40000A460021018B4FF67F7319401143018311
:103A500070470A460021018BC1F30E014FF6FF7338
:103A600003EA02231943018370470A460021818B30
:103A70004FF67F7319401143818370470A46002136
:103A8000818BC1F30E014FF6FF7303EA0223194342
:103A9000818370470A460021018C4FF6FD7319405F
:103AA0001143018470470A460021018C4FF6F773D9
:103AB00019401143018470470A460021018C4FF6DA
:103AC000DF7319404FF6FF7303EA021319430184B1
:103AD00070470A460021018C4FF67F7319404FF65C
:103AE000FF7303EA02131943018470470A46002159
:103AF000018C4FF6FF5319404FF6FF7303EA022380
:103B00001943018470470A460021018C4FF2FF736C
:103B100019404FF6FF7303EA0223194301847047EB
:103B20000A460021018C4DF6FF7319404FF6FF73D2
:103B300003EA023319430184704730B5002301249E
:103B40008C40A3B2048C9C430484048C02FA01F5DB
:103B5000ADB22C43048430BD30B5002304248C4026
:103B6000A3B2048C9C430484048C02FA01F5ADB228
:103B70002C43048430BD70B5034600200024184651
:103B8000183001258D40ACB21D8CA5431D8409B1B0
:103B9000082909D100EB6100056825F07005056072
:103BA0000568154305600EE00D1FC5F34E0528445A
:103BB000056825F4E045056005684FF6FF7606EADE
:103BC00002263543056070BD21B1028842F0020231
:103BD000028004E002884FF6FD731A4002807047AD
:103BE00021B1028842F00402028004E002884FF60C
:103BF000FB731A400280704721B1828842F0800234
:103C0000828004E082884FF67F731A40828070477A
:103C100002884FF6F7731A40028002880A43028036
:103C2000704782884FF68F731A40828082880A43D9
:103C30008280704702894FF6F8731A400281028928
:103C40000A430281704702894FF67F731A4002814E
:103C500002890A43028170478184704781857047D9
:103C6000818670470187704781877047A0F84010B0
:103C7000704702884FF6FF431A40028002880A43C9
:103C8000028070470146888E70470146088F704752
:103C90000146888F70470146B1F8400070470146E1
:103CA000888C70470146088D704702460020138AB1
:103CB0000B400BB1012000E000207047CA43028294
:103CC000704730B50246002000230024158A05EA1B
:103CD0000103958905EA010413B10CB1012000E04C
:103CE000002030BDCA4302827047000010B5044670
:103CF000FB48844209D101218803FFF79FF8002186
:103D00004FF48040FFF79AF832E0F648844209D138
:103D100001214804FFF79FF800214FF40030FFF71E
:103D20009AF825E0F048844209D101218804FFF780
:103D300092F800214FF48020FFF78DF818E0EB484F
:103D4000844209D10121C804FFF785F800214FF40E
:103D50000020FFF780F80BE0E548844208D10121FC
:103D60000805FFF778F800214FF48010FFF773F88B
:103D700010BD2DE9F04786B005460E460024A24648
:103D800000BFA1460027B08900B100BF2F462C8A92
:103D90004CF6FF700440F08804432C82AC894EF648
:103DA000F3100440B0883189084371890843044303
:103DB000AC81AC8A4FF6FF400440B0890443AC822A
:103DC00001A8FEF7B4FFC648874202D1DDF810A073
:103DD00001E0DDF80CA0A88900F4004040B10AEB36
:103DE000CA0000EB0A1031684900B0FBF1F807E0A7
:103DF0000AEBCA0000EB0A1031688900B0FBF1F849
:103E00006420B8FBF0F004012009642101FB108953
:103E1000A88900F4004040B1322000EBC900B0FB9B
:103E2000F1F000F00700044308E0322000EB091035
:103E30006421B0FBF1F000F00F0004432C8106B0C8
:103E4000BDE8F0874FF41651016000218180C180E8
:103E500001810C21418100218181704710B502460A
:103E60000020108A4FF2FF0318400B884C88234330
:103E70008C882343CC8823431843108210BD002133
:103E8000018041808180C180704721B1828942F4E4
:103E90000052828104E082894DF6FF731A408281CC
:103EA0007047F0B50346002400260025002040F6A8
:103EB0006A17B94200D100BF1846C1F3421401F09D
:103EC0001F06012707FA06F5012C01D10C3004E08A
:103ED000022C01D1103000E014301AB107682F43D2
:103EE000076002E00768AF430760F0BD1AB1838A3C
:103EF0000B43838202E0838A8B4383827047028A6A
:103F00004FF6F0731A400282028A0A430282704717
:103F100082894FF2FF731A40828182890A4382812B
:103F2000704721B1828942F00202828104E08289D5
:103F30004FF6FD731A4082817047028A4FF6DF7395
:103F40001A400282028A0A430282704721B1028A21
:103F500042F48042028204E0028A4BF6FF731A4068
:103F600002827047C1F30802828070470146888848
:103F7000C0F308007047818941F0010181817047D9
:103F8000028BD2B20283028B42EA01220283704783
:103F9000028B02F47F420283028B0A430283704742
:103FA00021B1828A42F02002828204E0828A4FF6A6
:103FB000DF731A408282704721B1828A42F0100278
:103FC000828204E0828A4FF6EF731A408282704741
:103FD00021B1828A42F00802828204E0828A4FF68E
:103FE000F7731A408282704721B1828942F40042FD
:103FF000828103E08289C2F30E028281704721B17F
:10400000828A42F40062828204E0828A4FF2FF7365
:104010001A4082827047828A4FF6FB731A4082826E
:10402000828A0A438282704721B1828A42F0020268
:10403000828204E0828A4FF6FD731A4082827047C2
:1040400002460020B1F5007F00D100BF13880B406D
:104050000BB1012000E00020704701F40072B2F5BE
:10406000007F00D100BFCA430280704770B502468E
:10407000002400230025002040F66A16B14200D13A
:1040800000BFC1F3421501F01F03012606FA03F336
:10409000012D02D19689334006E0022D02D1168A05
:1040A000334001E0968A33400C12012606FA04F4EC
:1040B0001688344013B10CB1012000E0002070BD1F
:1040C00010B50022002340F66A14A14200D100BFBF
:1040D0000A1201249440A3B2DC43048010BD000006
:1040E000003801400044004000480040004C0040BF
:1040F0000050004001460020FE4A106800F03800E1
:10410000084310607047FB49096821F00801F94A2B
:10411000116011460968014311607047F54909684B
:1041200021F01001F34A1160114609680143116042
:104130007047F148EF494860F04848607047EE48E2
:10414000EC494860ED4848607047EA48006940F033
:104150008000E84908617047E648006940F0800047
:10416000E449086170470420E249C96801F001018F
:1041700009B101200EE0DF49C96801F0040109B16D
:10418000022007E0DB49C96801F0100109B10320F2
:1041900000E00420704700B502460423FFF7E3FF68
:1041A000034603E0FFF7DFFF0346521E012B01D158
:1041B000002AF7D102B90523184600BD30B50446E0
:1041C00004254FF43020FFF7E6FF0546042D17D1F4
:1041D000C848006940F00200C649086108464461C9
:1041E000006940F0400008614FF43020FFF7D3FF32
:1041F0000546C048006941F6FD710840BD490861A7
:10420000284630BD10B504244FF43020FFF7C3FF1B
:104210000446042C16D1B748006940F00400B549A3
:1042200008610846006940F0400008614FF4302002
:10423000FFF7B1FF0446AF48006941F6FB71084043
:10424000AC490861204610BD00B502460423FFF7C3
:104250008AFF034603E0FFF786FF0346521E012B49
:1042600001D1002AF7D102B90523184600BD10B5C7
:1042700004244FF43020FFF7E7FF0446042C16D146
:104280009C48006940F004009A49086108460069AA
:1042900040F0400008614FF43020FFF7D5FF04469E
:1042A0009448006941F6FB71084092490861204634
:1042B00010BD00208F49C96901F0020109B1012038
:1042C00000E00020704730B5A5250424FFF7F1FF7A
:1042D00000B100254FF43020FFF75DFF0446042CA9
:1042E0003AD18548834988608448886008460069D7
:1042F00040F0200008610846006940F04000086175
:104300004FF43020FFF747FF0446042C1BD17948B7
:10431000006941F6DF710840764908610846006986
:1043200040F01000086176480580E002FFF733FF97
:104330000446052C10D06F48006941F6EF71084023
:104340006C49086108E0052C06D06A48006941F60E
:10435000EF71084067490861204630BD78B50646D0
:104360000C46042500200090E802FFF714FF0546E4
:10437000042D24D15F48006940F001005D490861C7
:104380003480E802FFF707FF0546042D10D1B01C6A
:104390000090200C00990880E802FFF7FCFE05461B
:1043A0005448006941F6FE7108405249086106E030
:1043B0005048006941F6FE7108404E4908612846A0
:1043C00078BD70B504460D460426F002FFF7E3FE03
:1043D0000646042E11D14748006940F001004549C6
:1043E00008612580F002FFF7D6FE064641480069C5
:1043F00041F6FE7108403F490861304670BD70B516
:1044000005460E460424E002FFF7C5FE0446042CD0
:1044100017D13948374988603848886008460069AC
:1044200040F0100008612E80E002FFF7B4FE044661
:10443000052C06D02F48006941F6EF7108402D4940
:104440000861204670BD2DE9F04304464FF6FF7623
:104450003746B046B1460425E443E6B2C4F3072725
:10446000C4F307484FEA1469E802FFF794FE0546D3
:10447000042D49D120481F4988602048886008469B
:10448000006940F010000861FF2E06D01C4808307B
:104490000680E802FFF77FFE0546042D08D1FF2FB6
:1044A00006D017480A300780E802FFF774FE054679
:1044B000042D0AD1B8F1FF0F07D011480C30A0F835
:1044C0000080E802FFF767FE0546042D0AD1B9F126
:1044D000FF0F07D00A480E30A0F80090E802FFF75F
:1044E0005AFE0546052D0FD00248006941F6EF71CE
:1044F000084007E00020024023016745AB89EFCD6B
:1045000000F8FF1F664908612846BDE8F08330B512
:10451000054604244FF43020FFF73DFE0446042CEA
:1045200041D160485E4988605F48886008460069FC
:1045300040F0200008610846006940F04000086132
:104540004FF43020FFF727FE0446042C22D15448B4
:10455000006941F6DF710840514908610846006969
:1045600040F0100008611DB100205049088002E0B1
:10457000A5204E4908804FF43020FFF70CFE04467A
:10458000052C10D04648006941F6EF7108404449B7
:10459000086108E0052C06D04148006941F6DF714A
:1045A00008403F490861204630BDF0B505460E463B
:1045B000174604243B483A4988603B488860E0023B
:1045C000FFF7E9FD0446042C19D13548006940F095
:1045D00010003349086147F0F8003043284333495D
:1045E000891C0880E002FFF7D6FD0446052C06D0A2
:1045F0002B48006941F6EF710840294908612046BF
:10460000F0BD2748C069800870472548006A704798
:1046100000202349096801F0200109B1012000E0D0
:104620000020704729B11E4A126902431C4B1A61CF
:1046300004E01B4A12698243194B1A617047014614
:104640000020012908D1164AD26902F001020AB1FC
:10465000012008E0002006E0114AD2680A400AB1B1
:10466000012000E0002070470D49C8607047042019
:104670000B49C96801F0010109B101200EE00849A8
:10468000C96801F0040109B1022007E00449C968C2
:1046900001F0100109B1032000E004207047000080
:1046A0000020024023016745AB89EFCD00F8FF1FD2
:1046B00001684FF6FE721140016000210160416007
:1046C0008160C1608D49884208D18C4908394968A8
:1046D00041F00F01894A083A51608AE08749143154
:1046E000884208D185490839496841F0F001834A78
:1046F000083A51607DE081492831884208D17F49DC
:104700000839496841F470617C4A083A516070E0A8
:104710007A493C31884208D178490839496841F4DE
:104720007041764A083A516063E0744950318842DA
:1047300008D172490839496841F470216F4A083A32
:10474000516056E06D496431884208D16B4908399F
:10475000496841F47001694A083A516049E0674983
:104760007831884208D165490839496841F070615B
:10477000624A083A51603CE06149884206D1011F13
:10478000096841F00F01021F116032E05C491431E9
:10479000884208D15A49091F096841F0F001584A76
:1047A000121F116025E056492831884208D154492A
:1047B000091F096841F47061514A121F116018E025
:1047C0004F493C31884208D14D49091F096841F4DD
:1047D00070414B4A121F11600BE049495031884229
:1047E00007D14749091F096841F47021444A121F43
:1047F0001160704710B50022026847F6F0739A43C3
:104800000C6A8B6823430C6923434C6923438C69EE
:104810002343CC6923434C6A23438C6A23431A43C2
:104820000260CB6843600B6883604B68C36010BD57
:104830000021016041608160C1600161416181616D
:10484000C161016241628162704721B1026842F038
:104850000102026004E002684FF6FE731A40026033
:1048600070471AB103680B43036002E003688B438F
:1048700003607047416070470146486880B27047E6
:1048800001460020002201F080531BB11C4B083B65
:104890001A6802E0194B083B1A6802EA01030BB1DF
:1048A000012000E00020704700F0805119B1144948
:1048B000091F086002E01149083948607047014645
:1048C0000020002201F080531BB10D4B083B1A68F9
:1048D00002E00A4B083B1A6802EA01030BB101200F
:1048E00000E00020704700F0805119B10449091F11
:1048F000086002E00149083948607047080002403A
:1049000008040240032A40F2308010F0030C00F04B
:10491000158011F8013BBCF1020F624498BF11F8F9
:1049200001CB00F8013B38BF11F8013BA2F10402B2
:1049300098BF00F801CB38BF00F8013B11F003032A
:1049400000F02880083AC0F0088051F8043B083A8B
:1049500051F804CBA0E80810F5E7121D5CBF51F830
:10496000043B40F8043BAFF30080D20724BF11F8AA
:10497000013B11F801CB48BF11F8012B24BF00F80F
:10498000013B00F801CB48BF00F8012B704770478E
:104990007047704710B5203AC0F00B80B1E818504E
:1049A000203AA0E81850B1E81850A0E81850BFF419
:1049B000F5AF5FEA027C24BFB1E81850A0E81850B8
:1049C00044BF18C918C0BDE810405FEA827C24BF0C
:1049D00051F8043B40F8043B08BF7047D20728BF9A
:1049E00031F8023B48BF11F8012B28BF20F8023BE9
:1049F00048BF00F8012B7047754600F02BF8AE4613
:104A000005006946534620F00700854618B020B5DA
:104A1000FBF7B8FCBDE820404FF000064FF0000760
:104A20004FF000084FF0000B21F00701AC46ACE856
:104A3000C009ACE8C009ACE8C009ACE8C0098D46C3
:104A4000704710B50446AFF300802046BDE8104023
:104A5000FBF793BB00487047F8020020014918207B
:104A6000ABBEFEE7260002007047401058BFC0F101
:104A70004040491058BFC1F140418142EFF30080EE
:104A8000704700004FF47F0C1CEAD0121EBF1CEAD6
:104A9000D11392EA0C0F93EA0C0F00F0858090EA94
:104AA000010F48BF42F4807240F4000C41F4000052
:104AB0002CF07F4120F07F4000B58142A2EB030241
:104AC0000FF2081CACEB504EC0F100009EF800E065
:104AD0004FEA4E0E00FB0EFC38BF49004FEA2C1C7B
:104AE00002F5FA020CFB0EF34FEACE1E4FEA112C30
:104AF0004FEAC1210EEB635E42EB22420EFB0CFC3F
:104B00004FEA1C5300FB03114FEA112C4FEA01310D
:104B10000EFB0CFC4FEADC4C00FB0C11C14228BF21
:104B200009184CEB03335DF804EB10EB410143EB48
:104B3000C250B2F57C0F38BF704729D512F0F00F84
:104B40001CBF00F1C04000F000407047008182832C
:104B50008485868788898B8C8D8E8F91929395968C
:104B600097999A9C9D9FA0A2A3A5A7A8AAACAEB016
:104B7000B2B3B5B7B9BCBEC0C2C5C7C9CCCED1D41B
:104B8000D7D9DCDFE2E6E9ECF0F3F7FAFE0000004B
:104B90004FEA400C0CF1807CBCF17E4F28BF70477F
:104BA000B0F1C04000F063B990EA010F0CEAD113F4
:104BB00048BF42F48072624538BF634507D213F4A0
:104BC0007F0F16D080EA010000F00040704710B55A
:104BD00000F007F9097EFC3E00F005B880EA01000C
:104BE00000F00040704780EA010000F0004000F053
:104BF0003EB912F47F0F04BF0248704780EA0100FB
:104C000000F035B90000C07FC10DD1F19E0206DB76
:104C10004FEA002343F0004323FA02F070470042BA
:104C200007D54FEA4001B1F1FE4F02D24FF000002C
:104C3000704710B500F0D5F84992248000207047E5
:104C40006FEA20007047000010F0004148BF40426A
:104C5000B0FA80F310FA03F2C3F19D030BD051EACE
:104C6000C35101EB1220530638BF704700F1010019
:104C700008BF20F00100704750EA010C00F11380DA
:104C80001CF5000F58BFBCF5000F01D488427047D7
:104C900007D710F5000F58BF11F5000F15D4884243
:104CA0007047894270471CF5000F04D5BCF5000F12
:104CB000F7D5814270474FF0807C1CEB400F38BF26
:104CC0001CEB410F01D28142704710B500F089F80A
:104CD000922449004FF000504FF08051FFF7C5BEBD
:104CE0004FF47F0C1CEAD0121EBF1CEAD11392EACB
:104CF0000C0F93EA0C0F00F0478090EA010F48BFB9
:104D000042F480724FF0004C4CEA00204CEA012142
:104D100002EB0302A0FB0113A2F50002002918BF59
:104D200043F001035B0028BF4FEA330342EB22420A
:104D30005FEA132C4CEBC2502EBFBCEB436FB2F5B5
:104D40007C0F70474FEA036CBCF1004F08BF20F0A6
:104D50000100B2F57C0F38BF70470BD582F0FF021F
:104D600012F5803FC8BF704700F1C040D8BF00F0C7
:104D70000040704700F5000C5FEA4C0C48BF7047DC
:104D8000B0F1C04000F073B890EA010F0CEAD11303
:104D900048BF42F48072624538BF634504D280EA5E
:104DA000010000F00040704710B500F01AF800BF95
:104DB0008900013E00F007B800F009B85FEA410C35
:104DC0005FEA1C6C08D080EA010000F050B85FEA8E
:104DD000400C5FEA1C6CF6D14FF00040A0F580005B
:104DE00070470EF1020E2EF0030E5EF8044B2442C3
:104DF00004D44FEA4102B2F17F4F11D84FEA400389
:104E0000B3F17F4F0CD80ED14FEAD07CB2F17F4F77
:104E10000CEB4C0C0CF1020C08BF4CEBD17C04E009
:104E20004FF0080C01E04FEAD17C0CEB4C0324FA64
:104E300003F404F00704B4F1040C06D20EEB840C66
:104E4000BDE810404CF0010C6047DFE80CF00708AB
:104E500002024FF00040A0F5800010BD084642005D
:104E600018BFD2F1807288BF00F0004010BDFF2152
:104E700041EAD050C005704751EA000C00F11380A0
:104E80001CF5000F58BFBCF5000F01D481427047DC
:104E900007D711F5000F58BF10F5000F15D4814248
:104EA0007047894270471CF5000F04D5BCF5000F10
:104EB000F7D5884270474FF0807C1CEB410F38BF1C
:104EC0001CEB400F01D28842704780EA010081EA62
:104ED000000180EA0100FFF7F8BE00C1814001C077
:104EE000804101C0804100C1814001C0804100C1BA
:104EF000814000C1814001C0804101C0804100C1AA
:104F0000814000C1814001C0804100C1814001C099
:104F1000804101C0804100C1814001C0804100C189
:104F2000814000C1814001C0804100C1814001C079
:104F3000804101C0804100C1814000C1814001C069
:104F4000804101C0804100C1814001C0804100C159
:104F5000814000C1814001C0804101C0804100C149
:104F6000814000C1814001C0804100C1814001C039
:104F7000804101C0804100C1814000C1814001C029
:104F8000804101C0804100C1814001C0804100C119
:104F9000814000C1814001C0804100C1814001C009
:104FA000804101C0804100C1814001C0804100C1F9
:104FB000814000C1814001C0804101C0804100C1E9
:104FC000814000C1814001C0804100C1814001C0D9
:104FD000804101C0804100C1814000C0C101C303C4
:104FE00002C2C60607C705C5C404CC0C0DCD0FCF41
:104FF000CE0E0ACACB0BC90908C8D81819D91BDBB1
:10500000DA1A1EDEDF1FDD1D1CDC14D4D515D71700
:1050100016D6D21213D311D1D010F03031F133F3B0
:10502000F23236F6F737F53534F43CFCFD3DFF3F00
:105030003EFEFA3A3BFB39F9F83828E8E929EB2B30
:105040002AEAEE2E2FEF2DEDEC2CE42425E527E7C0
:10505000E62622E2E323E12120E0A06061A163A330
:10506000A26266A6A767A56564A46CACAD6DAF6FC0
:105070006EAEAA6A6BAB69A9A86878B8B979BB7B30
:105080007ABABE7E7FBF7DBDBC7CB47475B577B780
:10509000B67672B2B373B17170B0509091519353B0
:1050A000529296565797559594549C5C5D9D5F9F80
:1050B0009E5E5A9A9B5B99595898884849894B8BB0
:1050C0008A4A4E8E8F4F8D4D4C8C44848545874740
:1050D000468682424383418180400000FC500008A4
:1050E000000000200C010000280100080852000800
:1050F0000C0100204C0800004401000800A24A04F2
:105100000000000000000000010203040607080977
:10511000000000000000000000000000000000008F
:10512000B5620600140001000000D008000000C2B3
:1051300001000100010000000000B842B562060154
:105140000800010700010000000018E1B562060830
:1051500006006400010000007910B562063E2C00D4
:1051600000002005000810000100010101010300FA
:105170000000010103081000010001010500030007
:105180000000010106080E0000000101FD250000DD
:10519000000000000000000000000000000000000F
:1051A00000000000000000000000000000000000FF
:1051B00000000000000000000000000000000000EF
:1051C0000000000000000000000000000000C841D6
:1051D00000000000000000000000000000000000CF
:1051E00000000000000000000000000000000000BF
:1051F0000000000000010203040102030406070886
:08520000090204060800000089
:040000050800036983
:00000001FF
